:100000000C945D000C9485000C9485000C94850084
:100010000C9485000C9485000C9485000C9485004C
:100020000C9485000C9485000C9485000C9485003C
:100030000C9485000C9485000C9485000C9485002C
:100040000C948D030C9485000C945B030C94350385
:100050000C9485000C9485000C9485000C9485000C
:100060000C9485000C94850000000008000201003B
:100070000003040700000000000000000000000072
:10008000250028002B0000000000240027002A0083
:10009000040404040404040402020202020203032E
:1000A0000303030301020408102040800102040836
:1000B0001020010204081020D70311241FBECFEF27
:1000C000D8E0DEBFCDBF11E0A0E0B1E0E4E1FCE0AC
:1000D00002C005900D92A037B107D9F722E0A0E742
:1000E000B1E001C01D92A832B207E1F710E0CDE502
:1000F000D0E004C02197FE010E94FD05CC35D10758
:10010000C9F70E9411040C9408060C94000090E0BA
:10011000FC01EC55FF4F2491FC01E057FF4F849107
:10012000882399F090E0880F991FFC01EA57FF4F50
:10013000A591B491FC01E458FF4F859194918FB73C
:10014000F894EC91E22BEC938FBF0895CF92DF925D
:10015000EF92FF920F931F93CF93DF936C017A017D
:100160008B01C0E0D0E0CE15DF0589F0D8016D919C
:100170008D01D601ED91FC910190F081E02DC60139
:100180000995892B11F47E0102C02196ECCFC7019D
:10019000DF91CF911F910F91FF90EF90DF90CF9063
:1001A0000895FC01918D828D981761F0828DDF0199
:1001B000A80FB11D5D968C91928D9F5F9F73928F5A
:1001C00090E008958FEF9FEF0895FC01918D828D4F
:1001D000981731F0828DE80FF11D858D90E008951C
:1001E0008FEF9FEF0895FC01918D228D892F90E074
:1001F000805C9F4F821B91098F73992708958AE72E
:1002000091E00E94F30021E0892B09F420E0822F85
:100210000895FC01848DDF01A80FB11DA35ABF4FC3
:100220002C91848D90E001968F739927848FA689F5
:10023000B7892C93A089B1898C9180648C93938D1C
:10024000848D981306C00288F389E02D80818F7D0C
:1002500080830895EF92FF920F931F93CF93DF93C4
:10026000EC0181E0888F9B8D8C8D981305C0E88907
:10027000F989808185FD24C0F62E0B8D10E00F5F7B
:100280001F4F0F731127E02E8C8DE8120CC00FB694
:1002900007FCFACFE889F989808185FFF5CFCE0187
:1002A0000E940901F1CF8B8DFE01E80FF11DE35A89
:1002B000FF4FF0820B8FEA89FB898081806207C043
:1002C000EE89FF896083E889F98980818064808371
:1002D00081E090E0DF91CF911F910F91FF90EF901F
:1002E0000895CF93DF93EC01888D8823C9F0EA89C4
:1002F000FB89808185FD05C0A889B9898C9186FD1F
:100300000FC00FB607FCF5CF808185FFF2CFA8891B
:10031000B9898C9185FFEDCFCE010E940901E7CF0D
:10032000DF91CF91089580E090E0892B29F00E9421
:10033000FF0081110C940000089590E0FC01E85941
:10034000FF4F3491FC01EC55FF4F2491FC01E05725
:10035000FF4FE491EE2309F43BC0332339F13330EE
:1003600091F038F43130A9F0323001F584B58F7D49
:1003700012C0373091F03830A1F03430B9F48091A8
:1003800080008F7D03C0809180008F7780938000F4
:100390000DC084B58F7784BD09C08091B0008F7780
:1003A00003C08091B0008F7D8093B000F0E0EE0F2D
:1003B000FF1FE458FF4FA591B4918FB7F894EC91CB
:1003C000611103C020952E2301C02E2B2C938FBFCB
:1003D00008953FB7F8948091750190917601A091AE
:1003E0007701B091780126B5A89B05C02F3F19F081
:1003F0000196A11DB11D3FBFBA2FA92F982F8827A5
:10040000820F911DA11DB11DBC01CD0142E0660FFF
:10041000771F881F991F4A95D1F708958F929F9251
:10042000AF92BF92CF92DF92EF92FF926B017C016D
:100430000E94E9014B015C01C114D104E104F10403
:10044000F1F00E94E901DC01CB0188199909AA09A0
:10045000BB09883E9340A105B10570F321E0C21AA3
:10046000D108E108F10888EE880E83E0981EA11CEF
:10047000B11CC114D104E104F10419F7DDCFFF90E0
:10048000EF90DF90CF90BF90AF909F908F900895A6
:1004900008958EBD00000DB407FEFDCF8EB5089502
:1004A0008CBD9DBD0895CF93DF93009779F0FC013B
:1004B00001900020E9F73197AF01481B590BBC01AF
:1004C0008AE791E00E94A600EC0102C0C0E0D0E003
:1004D00042E050E068E171E08AE791E00E94A60006
:1004E0008C0F9D1FDF91CF9108951F93CF93DF93C2
:1004F000182F80E591E00E945002C7E1D2E060E051
:1005000088890E949D0183E00E944902812F0E94F8
:10051000490280E00E944902182F61E088890E9408
:100520009D01812FDF91CF911F910895EF92FF924E
:100530000F931F93CF93DF931F92CDB7DEB7082F92
:10054000162F80E591E049830E94500287E1E82E52
:1005500082E0F82E60E0F70180890E949D0185E02D
:100560000E944902802F0E944902812F0E94490265
:100570004981842F0E94490261E0F70180890F9030
:10058000DF91CF911F910F91FF90EF900C949D01FF
:10059000CF93C82F482F60EE8FE00E9496028FE025
:1005A0000E947502807E91E08C1301C090E0892F3B
:1005B000CF9108950F931F93CF93DF93082F162F9A
:1005C00080E591E00E945002C7E1D2E060E08889B6
:1005D0000E949D0182E00E944902802F0E944902F0
:1005E000812F0E94490261E08889DF91CF911F919C
:1005F0000F910C949D01CF92DF92FF920F931F9366
:10060000CF93DF931F92CDB7DEB7F82E162F042FAE
:1006100080E591E079830E94500260E0809127029A
:100620000E949D0182E00E9449028F2D0E94490292
:10063000F12EC12E7981D72E8C2D8F19801730F491
:10064000F60181916F010E944902F6CF61E080912D
:1006500027020F90DF91CF911F910F91FF90DF90B4
:10066000CF900C949D010E9403061F920F920FB62B
:100670000F9211242F933F934F935F936F937F9328
:100680008F939F93AF93BF93EF93FF938AE791E08C
:100690000E940901FF91EF91BF91AF919F918F91BE
:1006A0007F916F915F914F913F912F910F900FBE6E
:1006B0000F901F9018951F920F920FB60F92112452
:1006C0002F938F939F93EF93FF93E0918A01F09183
:1006D0008B018081E0919001F091910182FD12C027
:1006E0009081809193018F5F8F7320919401821785
:1006F00051F0E0919301F0E0E658FE4F958F809322
:10070000930101C08081FF91EF919F918F912F9173
:100710000F900FBE0F901F9018951F920F920FB65B
:100720000F9211242F933F938F939F93AF93BF9377
:100730008091710190917201A0917301B091740147
:100740003091700123E0230F2D3720F40196A11D75
:10075000B11D05C026E8230F0296A11DB11D2093EF
:1007600070018093710190937201A0937301B09313
:1007700074018091750190917601A0917701B091FB
:1007800078010196A11DB11D8093750190937601AA
:10079000A0937701B0937801BF91AF919F918F9112
:1007A0003F912F910F900FBE0F901F901895CF93F0
:1007B000DF93EAE7F1E01382128288EE93E0A0E093
:1007C000B0E084839583A683B7838CE091E0918326
:1007D000808385EC90E09587848784EC90E0978710
:1007E000868780EC90E0918B808B81EC90E0938BFE
:1007F000828B82EC90E0958B848B86EC90E0978BDB
:10080000868B118E128E138E148EC7E1D2E089E092
:10081000888B0E94870061E08889DF91CF910C94DA
:100820009D01CF93DF9300D000D0CDB7DEB7789491
:1008300084B5826084BD84B5816084BD85B58260E5
:1008400085BD85B5816085BD80916E008160809396
:100850006E001092810080918100826080938100FF
:10086000809181008160809381008091800081600F
:10087000809380008091B10084608093B10080916A
:10088000B00081608093B00080917A008460809392
:100890007A0080917A00826080937A0080917A0059
:1008A000816080937A0080917A00806880937A00DA
:1008B0001092C100E0918A01F0918B0182E0808367
:1008C000E0918601F09187011082E0918801F0911A
:1008D000890180E1808310929201E0918E01F09174
:1008E0008F0186E08083E0918C01F0918D01808101
:1008F00080618083E0918C01F0918D01808188601E
:100900008083E0918C01F0918D01808180688083EB
:10091000E0918C01F0918D0180818F7D80830AE9C7
:10092000A02E00E0B02E8EEAE82E80E0F82EDFB692
:10093000F89480917901811122C0F5018491F70129
:10094000249190E0880F991F8A579F4FFC01A59131
:10095000B4918C91282321F461E08AE00E949D01EA
:100960008AE00E9487008CB580618CBD8CB5806464
:100970008CBD8DE00E9487008BE00E9487008091F3
:1009800079018F5F80937901DFBE80E591E00E945D
:10099000500260E0809127020E949D0180EC0E943D
:1009A000490261E0809127020E949D016AE070E0A7
:1009B00080E090E00E940E0280E80E94C802882336
:1009C000A9F06AE070E080E090E00E940E028BE106
:1009D00091E00E94530284E391E00E94530264E696
:1009E00070E080E090E00E940E02A1CF6AE070E02B
:1009F00080E090E00E940E0260E08AE20E94DA024B
:100A000060EF89E20E94DA0266E888E20E94DA0278
:100A10006AE070E080E090E00E940E0210E360E087
:100A2000812F0E94DA0260E080E1810F0E94DA02E9
:100A300060E080E2810F0E94DA021F5F1E3379F7C7
:100A400060E080E60E94DA0260E080E70E94DA025D
:100A500063E08BE20E94DA0244E064E680E60E94F2
:100A6000960240E060E680E70E94960280E00E94E5
:100A7000C8028111A6CF6AE070E080E090E00E9499
:100A80000E028FE491E00E945302E0E78E2E912C3B
:100A9000A12CB12C8E010F5F1F4FF3E0FF2EF00E43
:100AA000A0E3EA2EB0E4DB2E87E691E00E94530239
:100AB000109217028092180290921902A0921A02C4
:100AC000B0921B0288E080931C02E0E0F1E0ADE10F
:100AD000B2E081918D9321E0E830F207D1F7412C0B
:100AE000512C70E5372EE982DA823B823801F3011E
:100AF000C1903F018C2D0E947502982F987083FD44
:100B000004C0772473947C0C04C0F610F0CF712CD1
:100B100092E0FFEF4F1A5F0A923069F422E3421627
:100B2000510409F768EE73E080E090E00E940E0245
:100B30000E949301B9CF82E34816510499F3409182
:100B40001C026DE172E085E0870D0E94FB0280913E
:100B50002502813029F480911C02806480931C025C
:100B600060911C0284E0870D0E94DA024091180215
:100B70005091190260911A0270911B028091170224
:100B80008130B1F44C835B83AB0166277727942FC8
:100B90009C71842F8370E8E09E9F800D11248860F3
:100BA0008A8365E0569547956A95E1F749830DC0BC
:100BB000CA0123E0969587952A95E1F789834295A6
:100BC000440F407E4A831C821B8244E0B801872D7B
:100BD0000E94FB027A9448E068E0872D0E9496020A
:100BE00082E3482E512C872D0E94750283FF9ACFF5
:100BF000F1E04F1A5108B9F795CFEE0FFF1F05909E
:100C0000F491E02D099481E090E0F8940C940806AA
:040C1000F894FFCF86
:100C14000101020300050607000000002A01A600E6
:100C2400F300D100E50071010D0A0043414E20425A
:100C3400555320536869656C6420696E6974206635
:100C440061696C0020496E69742043414E2042550D
:100C54005320536869656C6420616761696E004361
:100C6400414E2042555320536869656C6420696E77
:100C74006974206F6B2100496E206C6F6F700000E7
:00000001FF
