:100000000C945D000C9485000C9485000C94850084
:100010000C9485000C9485000C9485000C9485004C
:100020000C9485000C9485000C9485000C9485003C
:100030000C9485000C9485000C9485000C9485002C
:100040000C945E040C9485000C942C040C9406040F
:100050000C9485000C9485000C9485000C9485000C
:100060000C9485000C94850000000008000201003B
:100070000003040700000000000000000000000072
:10008000250028002B0000000000240027002A0083
:10009000040404040404040402020202020203032E
:1000A0000303030301020408102040800102040836
:1000B0001020010204081020A80411241FBECFEF55
:1000C000D8E0DEBFCDBF11E0A0E0B1E0EEE4FDE09E
:1000D00002C005900D92AA32B107D9F721E0AAE239
:1000E000B1E001C01D92A23EB207E1F710E0CDE5FC
:1000F000D0E004C02197FE010E949A06CC35D107BA
:10010000C9F70E94E2040C94A5060C94000090E04C
:10011000FC01EC55FF4F2491FC01E057FF4F849107
:10012000882399F090E0880F991FFC01EA57FF4F50
:10013000A591B491FC01E458FF4F859194918FB73C
:10014000F894EC91E22BEC938FBF0895CF92DF925D
:10015000EF92FF920F931F93CF93DF936C017A017D
:100160008B01C0E0D0E0CE15DF0589F0D8016D919C
:100170008D01D601ED91FC910190F081E02DC60139
:100180000995892B11F47E0102C02196ECCFC7019D
:10019000DF91CF911F910F91FF90EF90DF90CF9063
:1001A0000895FC01918D828D981761F0828DDF0199
:1001B000A80FB11D5D968C91928D9F5F9F73928F5A
:1001C00090E008958FEF9FEF0895FC01918D828D4F
:1001D000981731F0828DE80FF11D858D90E008951C
:1001E0008FEF9FEF0895FC01918D228D892F90E074
:1001F000805C9F4F821B91098F739927089584E338
:1002000091E00E94F30021E0892B09F420E0822F85
:100210000895FC01848DDF01A80FB11DA35ABF4FC3
:100220002C91848D90E001968F739927848FA689F5
:10023000B7892C93A089B1898C9180648C93938D1C
:10024000848D981306C00288F389E02D80818F7D0C
:1002500080830895EF92FF920F931F93CF93DF93C4
:10026000EC0181E0888F9B8D8C8D981305C0E88907
:10027000F989808185FD24C0F62E0B8D10E00F5F7B
:100280001F4F0F731127E02E8C8DE8120CC00FB694
:1002900007FCFACFE889F989808185FFF5CFCE0187
:1002A0000E940901F1CF8B8DFE01E80FF11DE35A89
:1002B000FF4FF0820B8FEA89FB898081806207C043
:1002C000EE89FF896083E889F98980818064808371
:1002D00081E090E0DF91CF911F910F91FF90EF901F
:1002E0000895CF93DF93EC01888D8823C9F0EA89C4
:1002F000FB89808185FD05C0A889B9898C9186FD1F
:100300000FC00FB607FCF5CF808185FFF2CFA8891B
:10031000B9898C9185FFEDCFCE010E940901E7CF0D
:10032000DF91CF91089580E090E0892B29F00E9421
:10033000FF0081110C940000089590E0FC01E85941
:10034000FF4F3491FC01EC55FF4F2491FC01E05725
:10035000FF4FE491EE2309F43BC0332339F13330EE
:1003600091F038F43130A9F0323001F584B58F7D49
:1003700012C0373091F03830A1F03430B9F48091A8
:1003800080008F7D03C0809180008F7780938000F4
:100390000DC084B58F7784BD09C08091B0008F7780
:1003A00003C08091B0008F7D8093B000F0E0EE0F2D
:1003B000FF1FE458FF4FA591B4918FB7F894EC91CB
:1003C000611103C020952E2301C02E2B2C938FBFCB
:1003D00008953FB7F89480912F0190913001A0913A
:1003E0003101B091320126B5A89B05C02F3F19F00D
:1003F0000196A11DB11D3FBFBA2FA92F982F8827A5
:10040000820F911DA11DB11DBC01CD0142E0660FFF
:10041000771F881F991F4A95D1F708958F929F9251
:10042000AF92BF92CF92DF92EF92FF926B017C016D
:100430000E94E9014B015C01C114D104E104F10403
:10044000F1F00E94E901DC01CB0188199909AA09A0
:10045000BB09883E9340A105B10570F321E0C21AA3
:10046000D108E108F10888EE880E83E0981EA11CEF
:10047000B11CC114D104E104F10419F7DDCFFF90E0
:10048000EF90DF90CF90BF90AF909F908F900895A6
:1004900008958EBD00000DB407FEFDCF8EB5089502
:1004A0008CBD9DBD08951F93CF93DF93182F80E5DA
:1004B00091E00E945002C1EDD1E060E088890E9485
:1004C0009D0183E00E944902812F0E94490280E041
:1004D0000E944902182F61E088890E949D01812FA6
:1004E000DF91CF911F910895EF92FF920F931F9389
:1004F000CF93DF931F92CDB7DEB7082F162F80E57D
:1005000091E049830E94500281EDE82E81E0F82EAF
:1005100060E0F70180890E949D0185E00E94490208
:10052000802F0E944902812F0E9449024981842F15
:100530000E94490261E0F70180890F90DF91CF911D
:100540001F910F91FF90EF900C949D01CF93C82FB6
:10055000482F60EE8FE00E9474028FE00E945302E9
:10056000807E91E08C1301C090E0892FCF91089597
:100570000F931F93CF93DF93082F162F80E591E001
:100580000E945002C1EDD1E060E088890E949D0187
:1005900082E00E944902802F0E944902812F0E941E
:1005A000490261E08889DF91CF911F910F910C94EE
:1005B0009D01EF92FF920F931F93CF93DF931F92B2
:1005C000CDB7DEB7182FF62EE42E80E591E07983C3
:1005D0000E94500260E08091E1010E949D0183E051
:1005E0000E944902812F0E9449020F2D7981172F05
:1005F000F12CFE1459F0F8E0FF1641F080E00E9463
:100600004902F80181938F01F394F3CF61E0809167
:10061000E1010F90DF91CF911F910F91FF90EF902B
:100620000C949D010F931F93CF93DF9300D000D0C4
:10063000CDB7DEB7182F1092D1011092D2011092CF
:10064000D3011092D4011092D50144E0BE016F5F36
:100650007F4F0E94D9028A819981482F50E065E03E
:10066000559547956A95E1F728E0929F400D511DF9
:100670001124052E000C660B770B4093D20150938A
:10068000D3016093D4017093D50183FF29C092E018
:10069000440F551F661F771F9A95D1F78370480F37
:1006A000511D611D711D762F652F542F44278B819D
:1006B000480F511D611D711D762F652F542F442742
:1006C0008C81480F511D611D711D4093D2015093C3
:1006D000D3016093D4017093D50181E08093D1015F
:1006E0008FEF810F0E945302082F84E0810F0E9438
:1006F0005302482F03FF04C081E08093DF0102C052
:100700001092DF014F704093D60167ED71E085E0F4
:10071000810F0E94D9020F900F900F900F90DF91E0
:10072000CF911F910F9108951F93CF93DF9380E591
:1007300091E00E945002C1EDD1E060E088890E9402
:100740009D0180EA0E94490280E00E944902182F20
:1007500061E088890E949D01812FDF91CF911F91D7
:100760000895009769F0FC0101900020E9F73197A6
:10077000AF01481B590BBC0184E391E00C94A60027
:1007800080E090E008958F929F92AF92BF920F9376
:100790001F93CF93DF93CDB7DEB7A1970FB6F89431
:1007A000DEBF0FBECDBF19A2423008F44AE08E0171
:1007B0000F5D1F4F842E912CA12CB12CA50194010B
:1007C0000E947806E62FB901CA0101501109EA30EA
:1007D00014F4E05D01C0E95CD801EC93232B242BD9
:1007E000252B61F7C8010E94B103A1960FB6F894BA
:1007F000DEBF0FBECDBFDF91CF911F910F91BF9094
:10080000AF909F908F9008950E94A0061F920F9224
:100810000FB60F9211242F933F934F935F936F93D3
:100820007F938F939F93AF93BF93EF93FF9384E353
:1008300091E00E940901FF91EF91BF91AF919F91CB
:100840008F917F916F915F914F913F912F910F9079
:100850000FBE0F901F9018951F920F920FB60F9218
:1008600011242F938F939F93EF93FF93E091440173
:10087000F09145018081E0914A01F0914B0182FDA8
:1008800012C0908180914D018F5F8F7320914E0136
:10089000821751F0E0914D01F0E0EC5CFE4F958F36
:1008A00080934D0101C08081FF91EF919F918F91C5
:1008B0002F910F900FBE0F901F9018951F920F92BF
:1008C0000FB60F9211242F933F938F939F93AF9363
:1008D000BF9380912B0190912C01A0912D01B0919B
:1008E0002E0130912A0123E0230F2D3720F40196A9
:1008F000A11DB11D05C026E8230F0296A11DB11D43
:1009000020932A0180932B0190932C01A0932D0119
:10091000B0932E0180912F0190913001A09131016F
:10092000B09132010196A11DB11D80932F019093CA
:100930003001A0933101B0933201BF91AF919F91EB
:100940008F913F912F910F900FBE0F901F90189590
:10095000CF93DF93E4E3F1E01382128288EE93E019
:10096000A0E0B0E084839583A683B78384E091E020
:100970009183808385EC90E09587848784EC90E078
:100980009787868780EC90E0918B808B81EC90E05C
:10099000938B828B82EC90E0958B848B86EC90E03D
:1009A000978B868B118E128E138E148EC1EDD1E033
:1009B00089E0888B0E94870061E08889DF91CF9170
:1009C0000C949D01CF93DF93CDB7DEB728970FB678
:1009D000F894DEBF0FBECDBF789484B5826084BD2D
:1009E00084B5816084BD85B5826085BD85B5816033
:1009F00085BD80916E00816080936E0010928100B1
:100A0000809181008260809381008091810081606B
:100A1000809381008091800081608093800080912C
:100A2000B10084608093B1008091B00081608093B8
:100A3000B00080917A00846080937A0080917A007F
:100A4000826080937A0080917A00816080937A003E
:100A500080917A00806880937A001092C100E091C2
:100A60004401F091450182E08083E0914001F091E2
:100A700041011082E0914201F091430180E18083C5
:100A800010924C01E0914801F091490186E0808389
:100A9000E0914601F0914701808180618083E0917F
:100AA0004601F0914701808188608083E091460192
:100AB000F0914701808180688083E0914601F09148
:100AC000470180818F7D808380E191E00E94B103A6
:100AD00082E291E00E94B1034AE9A42E40E0B42EE4
:100AE0005EEAE52E50E0F52EDFB6F89480913301F2
:100AF000811122C0F5018491F701249190E0880FC3
:100B0000991F8A579F4FFC01A591B4918C9128237E
:100B100021F461E08AE00E949D018AE00E94870042
:100B20008CB580618CBD8CB580648CBD8DE00E94DD
:100B300087008BE00E948700809133018F5F809354
:100B40003301DFBE80E591E00E94500260E08091B9
:100B5000E1010E949D0180EC0E94490261E08091C8
:100B6000E1010E949D016AE070E080E090E00E9457
:100B70000E0280E80E94A6028823A9F06AE070E0D5
:100B800080E090E00E940E0264E670E080E090E079
:100B90000E940E0280E191E00E94B10382E291E0A6
:100BA0000E94B103A1CF6AE070E080E090E00E9473
:100BB0000E0260E08AE20E94B80260EF89E20E94C1
:100BC000B80266E888E20E94B8026AE070E080E05D
:100BD00090E00E940E0210E360E0812F0E94B802B4
:100BE00060E080E1810F0E94B80260E080E2810F46
:100BF0000E94B8021F5F1E3379F760E080E60E9412
:100C0000B80260E080E70E94B80263E08BE20E94D5
:100C1000B80244E064E680E60E94740240E060E6C8
:100C200080E70E94740280E00E94A6028111A6CF94
:100C30006AE070E080E090E00E940E02CE01019632
:100C40007C010E949403837029F007C082E291E046
:100C50000E94B1030E949301F4CF0E94940380FF8D
:100C600006C081E60E94120340E061E007C081FFF8
:100C700018C081E70E94120340E062E08CE20E940B
:100C800074020091D601A7EDB1E0F701802F90E04A
:100C90009F012E193F092817390724F42D9121931C
:100CA000F7CF00E06091D2017091D3018091D4011F
:100CB0009091D5014AE00E94C30385E291E00E9431
:100CC000B103670110E0C6018E199F0980179107D3
:100CD0000CF0BCCFF60161916F0170E080E090E014
:100CE0004AE00E94C30387E291E00E94B103EBCF88
:100CF000A1E21A2EAA1BBB1BFD010DC0AA1FBB1F20
:100D0000EE1FFF1FA217B307E407F50720F0A21B91
:100D1000B30BE40BF50B661F771F881F991F1A94FE
:100D200069F760957095809590959B01AC01BD0128
:100D3000CF010895EE0FFF1F0590F491E02D099467
:0E0D400081E090E0F8940C94A506F894FFCFA3
:100D4E00000000002A01A600F300D100E5007101A9
:100D5E00307C3020302030203020302030203020A9
:0A0D6E0030000D0A007C0020000098
:00000001FF
